{
  "contractName": "Commodity",
  "abi": [
    {
      "constant": true,
      "inputs": [
        {
          "name": "",
          "type": "address"
        },
        {
          "name": "",
          "type": "bytes3"
        }
      ],
      "name": "beneficiaryData",
      "outputs": [
        {
          "name": "beneficiary",
          "type": "address"
        },
        {
          "name": "distributor",
          "type": "address"
        },
        {
          "name": "date",
          "type": "bytes1"
        },
        {
          "name": "rice",
          "type": "uint256"
        },
        {
          "name": "wheat",
          "type": "uint256"
        },
        {
          "name": "coarse",
          "type": "uint256"
        }
      ],
      "payable": false,
      "stateMutability": "view",
      "type": "function",
      "signature": "0x5e8ac21e"
    },
    {
      "constant": true,
      "inputs": [
        {
          "name": "",
          "type": "address"
        }
      ],
      "name": "distributors",
      "outputs": [
        {
          "name": "rice",
          "type": "uint256"
        },
        {
          "name": "wheat",
          "type": "uint256"
        },
        {
          "name": "coarse",
          "type": "uint256"
        }
      ],
      "payable": false,
      "stateMutability": "view",
      "type": "function",
      "signature": "0xcc642784"
    },
    {
      "inputs": [],
      "payable": false,
      "stateMutability": "nonpayable",
      "type": "constructor",
      "signature": "constructor"
    },
    {
      "anonymous": false,
      "inputs": [
        {
          "indexed": false,
          "name": "distributorId",
          "type": "address"
        },
        {
          "indexed": false,
          "name": "rice",
          "type": "uint256"
        },
        {
          "indexed": false,
          "name": "wheat",
          "type": "uint256"
        },
        {
          "indexed": false,
          "name": "coarse",
          "type": "uint256"
        }
      ],
      "name": "BufferStatusChanged",
      "type": "event",
      "signature": "0xf9d9153b7234c08754f520607a99eeb3c3a6405227b2a1d7252a0ad0b6cb43b1"
    },
    {
      "anonymous": false,
      "inputs": [
        {
          "indexed": false,
          "name": "beneficiaryId",
          "type": "address"
        },
        {
          "indexed": false,
          "name": "rice",
          "type": "uint256"
        },
        {
          "indexed": false,
          "name": "wheat",
          "type": "uint256"
        },
        {
          "indexed": false,
          "name": "coarse",
          "type": "uint256"
        }
      ],
      "name": "Sold",
      "type": "event",
      "signature": "0xe029f26dbcf8c42dd2f352c10214a7fc26773dc62482c6241334a0402ac09a80"
    },
    {
      "constant": true,
      "inputs": [],
      "name": "getAdmin",
      "outputs": [
        {
          "name": "x",
          "type": "address"
        }
      ],
      "payable": false,
      "stateMutability": "view",
      "type": "function",
      "signature": "0x6e9960c3"
    },
    {
      "constant": false,
      "inputs": [
        {
          "name": "distributorId",
          "type": "address"
        },
        {
          "name": "rice",
          "type": "uint256"
        },
        {
          "name": "wheat",
          "type": "uint256"
        },
        {
          "name": "coarse",
          "type": "uint256"
        }
      ],
      "name": "allocate",
      "outputs": [],
      "payable": false,
      "stateMutability": "nonpayable",
      "type": "function",
      "signature": "0xb8fec1ad"
    },
    {
      "constant": false,
      "inputs": [
        {
          "name": "beneficiaryId",
          "type": "address"
        },
        {
          "name": "date",
          "type": "bytes1"
        },
        {
          "name": "monthYear",
          "type": "bytes3"
        },
        {
          "name": "rice",
          "type": "uint256"
        },
        {
          "name": "wheat",
          "type": "uint256"
        },
        {
          "name": "coarse",
          "type": "uint256"
        }
      ],
      "name": "sell",
      "outputs": [],
      "payable": false,
      "stateMutability": "nonpayable",
      "type": "function",
      "signature": "0x4943e16e"
    }
  ],
  "bytecode": "0x608060405234801561001057600080fd5b50336000806101000a81548173ffffffffffffffffffffffffffffffffffffffff021916908373ffffffffffffffffffffffffffffffffffffffff160217905550610b12806100606000396000f3fe60806040526004361061006d576000357c0100000000000000000000000000000000000000000000000000000000900463ffffffff1680634943e16e146100725780635e8ac21e146101375780636e9960c314610285578063b8fec1ad146102dc578063cc6427841461034b575b600080fd5b34801561007e57600080fd5b50610135600480360360c081101561009557600080fd5b81019080803573ffffffffffffffffffffffffffffffffffffffff16906020019092919080357effffffffffffffffffffffffffffffffffffffffffffffffffffffffffffff1916906020019092919080357cffffffffffffffffffffffffffffffffffffffffffffffffffffffffff191690602001909291908035906020019092919080359060200190929190803590602001909291905050506103be565b005b34801561014357600080fd5b506101b06004803603604081101561015a57600080fd5b81019080803573ffffffffffffffffffffffffffffffffffffffff16906020019092919080357cffffffffffffffffffffffffffffffffffffffffffffffffffffffffff191690602001909291905050506107cc565b604051808773ffffffffffffffffffffffffffffffffffffffff1673ffffffffffffffffffffffffffffffffffffffff1681526020018673ffffffffffffffffffffffffffffffffffffffff1673ffffffffffffffffffffffffffffffffffffffff168152602001857effffffffffffffffffffffffffffffffffffffffffffffffffffffffffffff19167effffffffffffffffffffffffffffffffffffffffffffffffffffffffffffff19168152602001848152602001838152602001828152602001965050505050505060405180910390f35b34801561029157600080fd5b5061029a610881565b604051808273ffffffffffffffffffffffffffffffffffffffff1673ffffffffffffffffffffffffffffffffffffffff16815260200191505060405180910390f35b3480156102e857600080fd5b50610349600480360360808110156102ff57600080fd5b81019080803573ffffffffffffffffffffffffffffffffffffffff1690602001909291908035906020019092919080359060200190929190803590602001909291905050506108aa565b005b34801561035757600080fd5b5061039a6004803603602081101561036e57600080fd5b81019080803573ffffffffffffffffffffffffffffffffffffffff169060200190929190505050610a9a565b60405180848152602001838152602001828152602001935050505060405180910390f35b6103c6610ac4565b600160003373ffffffffffffffffffffffffffffffffffffffff1673ffffffffffffffffffffffffffffffffffffffff168152602001908152602001600020606060405190810160405290816000820154815260200160018201548152602001600282015481525050905060008482600001510390506000848360200151039050600084846040015103905060606040519081016040528084815260200183815260200182815250600160003373ffffffffffffffffffffffffffffffffffffffff1673ffffffffffffffffffffffffffffffffffffffff16815260200190815260200160002060008201518160000155602082015181600101556040820151816002015590505060c0604051908101604052808b73ffffffffffffffffffffffffffffffffffffffff1681526020013373ffffffffffffffffffffffffffffffffffffffff1681526020018a7effffffffffffffffffffffffffffffffffffffffffffffffffffffffffffff1916815260200188815260200187815260200186815250600260008c73ffffffffffffffffffffffffffffffffffffffff1673ffffffffffffffffffffffffffffffffffffffff16815260200190815260200160002060008a7cffffffffffffffffffffffffffffffffffffffffffffffffffffffffff19167cffffffffffffffffffffffffffffffffffffffffffffffffffffffffff1916815260200190815260200160002060008201518160000160006101000a81548173ffffffffffffffffffffffffffffffffffffffff021916908373ffffffffffffffffffffffffffffffffffffffff16021790555060208201518160010160006101000a81548173ffffffffffffffffffffffffffffffffffffffff021916908373ffffffffffffffffffffffffffffffffffffffff16021790555060408201518160010160146101000a81548160ff02191690837f010000000000000000000000000000000000000000000000000000000000000090040217905550606082015181600201556080820151816003015560a082015181600401559050507ff9d9153b7234c08754f520607a99eeb3c3a6405227b2a1d7252a0ad0b6cb43b133848484604051808573ffffffffffffffffffffffffffffffffffffffff1673ffffffffffffffffffffffffffffffffffffffff16815260200184815260200183815260200182815260200194505050505060405180910390a17fe029f26dbcf8c42dd2f352c10214a7fc26773dc62482c6241334a0402ac09a808a888888604051808573ffffffffffffffffffffffffffffffffffffffff1673ffffffffffffffffffffffffffffffffffffffff16815260200184815260200183815260200182815260200194505050505060405180910390a150505050505050505050565b6002602052816000526040600020602052806000526040600020600091509150508060000160009054906101000a900473ffffffffffffffffffffffffffffffffffffffff16908060010160009054906101000a900473ffffffffffffffffffffffffffffffffffffffff16908060010160149054906101000a90047f010000000000000000000000000000000000000000000000000000000000000002908060020154908060030154908060040154905086565b60008060009054906101000a900473ffffffffffffffffffffffffffffffffffffffff16905090565b6000809054906101000a900473ffffffffffffffffffffffffffffffffffffffff1673ffffffffffffffffffffffffffffffffffffffff163373ffffffffffffffffffffffffffffffffffffffff1614151561090557600080fd5b61090d610ac4565b600160008673ffffffffffffffffffffffffffffffffffffffff1673ffffffffffffffffffffffffffffffffffffffff168152602001908152602001600020606060405190810160405290816000820154815260200160018201548152602001600282015481525050905060008482600001510190506000848360200151019050600084846040015101905060606040519081016040528084815260200183815260200182815250600160008a73ffffffffffffffffffffffffffffffffffffffff1673ffffffffffffffffffffffffffffffffffffffff1681526020019081526020016000206000820151816000015560208201518160010155604082015181600201559050507ff9d9153b7234c08754f520607a99eeb3c3a6405227b2a1d7252a0ad0b6cb43b188888888604051808573ffffffffffffffffffffffffffffffffffffffff1673ffffffffffffffffffffffffffffffffffffffff16815260200184815260200183815260200182815260200194505050505060405180910390a15050505050505050565b60016020528060005260406000206000915090508060000154908060010154908060020154905083565b606060405190810160405280600081526020016000815260200160008152509056fea165627a7a72305820f3636ac6df3cdc470fb05d76adc1feed3c6e1dbcde2a19f8ab4b5f99b52c784b0029",
  "source": "pragma solidity ^0.5.0;\n\ncontract Commodity {\n  address admin;\n\n  event BufferStatusChanged(\n    address distributorId,\n    uint rice,\n    uint wheat,\n    uint coarse\n  );\n\n  event Sold(\n    address beneficiaryId,\n    uint rice,\n    uint wheat,\n    uint coarse\n  );\n\n  struct FoodGrains{\n    uint rice;\n    uint wheat;\n    uint coarse;\n  }\n\n  struct BeneficiaryData{\n    address beneficiary;\n    address distributor;\n\tbytes1 date;\n    uint rice;\n    uint wheat;\n    uint coarse;\n  }\n  \n  mapping(address => FoodGrains) public distributors;\n  mapping(address => mapping(bytes3 => BeneficiaryData)) public beneficiaryData;\n\n  constructor() public {\n    admin = msg.sender;\n  }\n\n  function getAdmin() public view returns (address x){\n    return admin;\n  }\n\n  function allocate(address distributorId,uint rice,uint wheat,uint coarse) public {\n    require(msg.sender == admin);\n\n    FoodGrains memory grains = distributors[distributorId];\n\n    uint newRice = grains.rice + rice;\n    uint newWheat = grains.wheat + wheat;\n    uint newCoarse = grains.coarse + coarse;    \n\n    distributors[distributorId] = FoodGrains(newRice,newWheat,newCoarse);\n    emit BufferStatusChanged(distributorId,rice,wheat,coarse);\n  }\n\n  function sell(address beneficiaryId,bytes1 date,bytes3 monthYear,uint rice,uint wheat,uint coarse) public {\n    FoodGrains memory grains = distributors[msg.sender];\n\n    uint newRice = grains.rice - rice;\n    uint newWheat = grains.wheat - wheat;\n    uint newCoarse = grains.coarse - coarse;\n\n    distributors[msg.sender] = FoodGrains(newRice,newWheat,newCoarse);\n    beneficiaryData[beneficiaryId][monthYear] = BeneficiaryData(beneficiaryId,msg.sender,date,rice,wheat,coarse);\n    emit BufferStatusChanged(msg.sender,newRice,newWheat,newCoarse);\n    emit Sold(beneficiaryId,rice,wheat,coarse);\n  }\n\n}\n",
  "sourcePath": "S:/commodity/contracts/Commodity.sol",
  "compiler": {
    "name": "solc",
    "version": "0.5.0+commit.1d4f565a.Emscripten.clang"
  },
  "schemaVersion": "3.0.0",
  "updatedAt": "2019-01-05T05:30:10.893Z",
  "devdoc": {
    "methods": {}
  },
  "userdoc": {
    "methods": {}
  }
}