{
  "contractName": "Commodity",
  "abi": [
    {
      "constant": true,
      "inputs": [
        {
          "name": "",
          "type": "address"
        }
      ],
      "name": "entryCount",
      "outputs": [
        {
          "name": "",
          "type": "uint256"
        }
      ],
      "payable": false,
      "stateMutability": "view",
      "type": "function",
      "signature": "0x41dd1ef8"
    },
    {
      "constant": true,
      "inputs": [
        {
          "name": "",
          "type": "address"
        },
        {
          "name": "",
          "type": "uint256"
        }
      ],
      "name": "beneficiaryData",
      "outputs": [
        {
          "name": "beneficiary",
          "type": "address"
        },
        {
          "name": "distributor",
          "type": "address"
        },
        {
          "name": "date",
          "type": "bytes1"
        },
        {
          "name": "monthYear",
          "type": "bytes3"
        },
        {
          "name": "rice",
          "type": "uint256"
        },
        {
          "name": "wheat",
          "type": "uint256"
        },
        {
          "name": "coarse",
          "type": "uint256"
        }
      ],
      "payable": false,
      "stateMutability": "view",
      "type": "function",
      "signature": "0x5afc87d1"
    },
    {
      "constant": true,
      "inputs": [
        {
          "name": "",
          "type": "address"
        }
      ],
      "name": "distributors",
      "outputs": [
        {
          "name": "rice",
          "type": "uint256"
        },
        {
          "name": "wheat",
          "type": "uint256"
        },
        {
          "name": "coarse",
          "type": "uint256"
        }
      ],
      "payable": false,
      "stateMutability": "view",
      "type": "function",
      "signature": "0xcc642784"
    },
    {
      "inputs": [],
      "payable": false,
      "stateMutability": "nonpayable",
      "type": "constructor",
      "signature": "constructor"
    },
    {
      "anonymous": false,
      "inputs": [
        {
          "indexed": false,
          "name": "distributorId",
          "type": "address"
        },
        {
          "indexed": false,
          "name": "rice",
          "type": "uint256"
        },
        {
          "indexed": false,
          "name": "wheat",
          "type": "uint256"
        },
        {
          "indexed": false,
          "name": "coarse",
          "type": "uint256"
        }
      ],
      "name": "BufferStatusChanged",
      "type": "event",
      "signature": "0xf9d9153b7234c08754f520607a99eeb3c3a6405227b2a1d7252a0ad0b6cb43b1"
    },
    {
      "anonymous": false,
      "inputs": [
        {
          "indexed": false,
          "name": "beneficiaryId",
          "type": "address"
        },
        {
          "indexed": false,
          "name": "rice",
          "type": "uint256"
        },
        {
          "indexed": false,
          "name": "wheat",
          "type": "uint256"
        },
        {
          "indexed": false,
          "name": "coarse",
          "type": "uint256"
        }
      ],
      "name": "Sold",
      "type": "event",
      "signature": "0xe029f26dbcf8c42dd2f352c10214a7fc26773dc62482c6241334a0402ac09a80"
    },
    {
      "constant": true,
      "inputs": [],
      "name": "getAdmin",
      "outputs": [
        {
          "name": "x",
          "type": "address"
        }
      ],
      "payable": false,
      "stateMutability": "view",
      "type": "function",
      "signature": "0x6e9960c3"
    },
    {
      "constant": false,
      "inputs": [
        {
          "name": "distributorId",
          "type": "address"
        },
        {
          "name": "rice",
          "type": "uint256"
        },
        {
          "name": "wheat",
          "type": "uint256"
        },
        {
          "name": "coarse",
          "type": "uint256"
        }
      ],
      "name": "allocate",
      "outputs": [],
      "payable": false,
      "stateMutability": "nonpayable",
      "type": "function",
      "signature": "0xb8fec1ad"
    },
    {
      "constant": false,
      "inputs": [
        {
          "name": "beneficiaryId",
          "type": "address"
        },
        {
          "name": "date",
          "type": "bytes1"
        },
        {
          "name": "monthYear",
          "type": "bytes3"
        },
        {
          "name": "rice",
          "type": "uint256"
        },
        {
          "name": "wheat",
          "type": "uint256"
        },
        {
          "name": "coarse",
          "type": "uint256"
        }
      ],
      "name": "sell",
      "outputs": [],
      "payable": false,
      "stateMutability": "nonpayable",
      "type": "function",
      "signature": "0x4943e16e"
    },
    {
      "constant": true,
      "inputs": [
        {
          "name": "beneficiaryId",
          "type": "address"
        }
      ],
      "name": "getAllTransactions",
      "outputs": [
        {
          "name": "",
          "type": "address[]"
        }
      ],
      "payable": false,
      "stateMutability": "view",
      "type": "function",
      "signature": "0xdab3b7aa"
    }
  ],
  "bytecode": "0x608060405234801561001057600080fd5b50336000806101000a81548173ffffffffffffffffffffffffffffffffffffffff021916908373ffffffffffffffffffffffffffffffffffffffff160217905550610ee7806100606000396000f3fe608060405260043610610083576000357c0100000000000000000000000000000000000000000000000000000000900463ffffffff16806341dd1ef8146100885780634943e16e146100ed5780635afc87d1146101b25780636e9960c314610327578063b8fec1ad1461037e578063cc642784146103ed578063dab3b7aa14610460575b600080fd5b34801561009457600080fd5b506100d7600480360360208110156100ab57600080fd5b81019080803573ffffffffffffffffffffffffffffffffffffffff169060200190929190505050610506565b6040518082815260200191505060405180910390f35b3480156100f957600080fd5b506101b0600480360360c081101561011057600080fd5b81019080803573ffffffffffffffffffffffffffffffffffffffff16906020019092919080357effffffffffffffffffffffffffffffffffffffffffffffffffffffffffffff1916906020019092919080357cffffffffffffffffffffffffffffffffffffffffffffffffffffffffff1916906020019092919080359060200190929190803590602001909291908035906020019092919050505061051e565b005b3480156101be57600080fd5b5061020b600480360360408110156101d557600080fd5b81019080803573ffffffffffffffffffffffffffffffffffffffff169060200190929190803590602001909291905050506109bc565b604051808873ffffffffffffffffffffffffffffffffffffffff1673ffffffffffffffffffffffffffffffffffffffff1681526020018773ffffffffffffffffffffffffffffffffffffffff1673ffffffffffffffffffffffffffffffffffffffff168152602001867effffffffffffffffffffffffffffffffffffffffffffffffffffffffffffff19167effffffffffffffffffffffffffffffffffffffffffffffffffffffffffffff19168152602001857cffffffffffffffffffffffffffffffffffffffffffffffffffffffffff19167cffffffffffffffffffffffffffffffffffffffffffffffffffffffffff1916815260200184815260200183815260200182815260200197505050505050505060405180910390f35b34801561033357600080fd5b5061033c610ab0565b604051808273ffffffffffffffffffffffffffffffffffffffff1673ffffffffffffffffffffffffffffffffffffffff16815260200191505060405180910390f35b34801561038a57600080fd5b506103eb600480360360808110156103a157600080fd5b81019080803573ffffffffffffffffffffffffffffffffffffffff169060200190929190803590602001909291908035906020019092919080359060200190929190505050610ad9565b005b3480156103f957600080fd5b5061043c6004803603602081101561041057600080fd5b81019080803573ffffffffffffffffffffffffffffffffffffffff169060200190929190505050610cc9565b60405180848152602001838152602001828152602001935050505060405180910390f35b34801561046c57600080fd5b506104af6004803603602081101561048357600080fd5b81019080803573ffffffffffffffffffffffffffffffffffffffff169060200190929190505050610cf3565b6040518080602001828103825283818151815260200191508051906020019060200280838360005b838110156104f25780820151818401526020810190506104d7565b505050509050019250505060405180910390f35b60026020528060005260406000206000915090505481565b610526610e99565b600160003373ffffffffffffffffffffffffffffffffffffffff1673ffffffffffffffffffffffffffffffffffffffff168152602001908152602001600020606060405190810160405290816000820154815260200160018201548152602001600282015481525050905060008482600001510390506000848360200151039050600084846040015103905060606040519081016040528084815260200183815260200182815250600160003373ffffffffffffffffffffffffffffffffffffffff1673ffffffffffffffffffffffffffffffffffffffff168152602001908152602001600020600082015181600001556020820151816001015560408201518160020155905050600360008b73ffffffffffffffffffffffffffffffffffffffff1673ffffffffffffffffffffffffffffffffffffffff16815260200190815260200160002060e0604051908101604052808c73ffffffffffffffffffffffffffffffffffffffff1681526020013373ffffffffffffffffffffffffffffffffffffffff1681526020018b7effffffffffffffffffffffffffffffffffffffffffffffffffffffffffffff191681526020018a7cffffffffffffffffffffffffffffffffffffffffffffffffffffffffff19168152602001898152602001888152602001878152509080600181540180825580915050906001820390600052602060002090600502016000909192909190915060008201518160000160006101000a81548173ffffffffffffffffffffffffffffffffffffffff021916908373ffffffffffffffffffffffffffffffffffffffff16021790555060208201518160010160006101000a81548173ffffffffffffffffffffffffffffffffffffffff021916908373ffffffffffffffffffffffffffffffffffffffff16021790555060408201518160010160146101000a81548160ff02191690837f01000000000000000000000000000000000000000000000000000000000000009004021790555060608201518160010160156101000a81548162ffffff02191690837d010000000000000000000000000000000000000000000000000000000000900402179055506080820151816002015560a0820151816003015560c08201518160040155505050600260008b73ffffffffffffffffffffffffffffffffffffffff1673ffffffffffffffffffffffffffffffffffffffff168152602001908152602001600020600081548092919060010191905055507ff9d9153b7234c08754f520607a99eeb3c3a6405227b2a1d7252a0ad0b6cb43b133848484604051808573ffffffffffffffffffffffffffffffffffffffff1673ffffffffffffffffffffffffffffffffffffffff16815260200184815260200183815260200182815260200194505050505060405180910390a17fe029f26dbcf8c42dd2f352c10214a7fc26773dc62482c6241334a0402ac09a808a888888604051808573ffffffffffffffffffffffffffffffffffffffff1673ffffffffffffffffffffffffffffffffffffffff16815260200184815260200183815260200182815260200194505050505060405180910390a150505050505050505050565b6003602052816000526040600020818154811015156109d757fe5b9060005260206000209060050201600091509150508060000160009054906101000a900473ffffffffffffffffffffffffffffffffffffffff16908060010160009054906101000a900473ffffffffffffffffffffffffffffffffffffffff16908060010160149054906101000a90047f010000000000000000000000000000000000000000000000000000000000000002908060010160159054906101000a90047d01000000000000000000000000000000000000000000000000000000000002908060020154908060030154908060040154905087565b60008060009054906101000a900473ffffffffffffffffffffffffffffffffffffffff16905090565b6000809054906101000a900473ffffffffffffffffffffffffffffffffffffffff1673ffffffffffffffffffffffffffffffffffffffff163373ffffffffffffffffffffffffffffffffffffffff16141515610b3457600080fd5b610b3c610e99565b600160008673ffffffffffffffffffffffffffffffffffffffff1673ffffffffffffffffffffffffffffffffffffffff168152602001908152602001600020606060405190810160405290816000820154815260200160018201548152602001600282015481525050905060008482600001510190506000848360200151019050600084846040015101905060606040519081016040528084815260200183815260200182815250600160008a73ffffffffffffffffffffffffffffffffffffffff1673ffffffffffffffffffffffffffffffffffffffff1681526020019081526020016000206000820151816000015560208201518160010155604082015181600201559050507ff9d9153b7234c08754f520607a99eeb3c3a6405227b2a1d7252a0ad0b6cb43b188888888604051808573ffffffffffffffffffffffffffffffffffffffff1673ffffffffffffffffffffffffffffffffffffffff16815260200184815260200183815260200182815260200194505050505060405180910390a15050505050505050565b60016020528060005260406000206000915090508060000154908060010154908060020154905083565b606080600260008473ffffffffffffffffffffffffffffffffffffffff1673ffffffffffffffffffffffffffffffffffffffff16815260200190815260200160002054604051908082528060200260200182016040528015610d645781602001602082028038833980820191505090505b50905060008090505b600260008573ffffffffffffffffffffffffffffffffffffffff1673ffffffffffffffffffffffffffffffffffffffff16815260200190815260200160002054811015610e8f576000600360008673ffffffffffffffffffffffffffffffffffffffff1673ffffffffffffffffffffffffffffffffffffffff16815260200190815260200160002082815481101515610e0257fe5b906000526020600020906005020190508060000160009054906101000a900473ffffffffffffffffffffffffffffffffffffffff168383815181101515610e4557fe5b9060200190602002019073ffffffffffffffffffffffffffffffffffffffff16908173ffffffffffffffffffffffffffffffffffffffff1681525050508080600101915050610d6d565b5080915050919050565b606060405190810160405280600081526020016000815260200160008152509056fea165627a7a72305820f4c1270e2a4bbeff6aebdfd73237f47e2deec519ebbc42244b3f47aa689bc96f0029",
  "source": "pragma solidity ^0.5.0;\n\ncontract Commodity {\n  address admin;\n\n  event BufferStatusChanged(\n    address distributorId,\n    uint rice,\n    uint wheat,\n    uint coarse\n  );\n\n  event Sold(\n    address beneficiaryId,\n    uint rice,\n    uint wheat,\n    uint coarse\n  );\n\n  struct FoodGrains{\n    uint rice;\n    uint wheat;\n    uint coarse;\n  }\n\n  struct BeneficiaryData{\n    address beneficiary;\n    address distributor;\n\t  bytes1 date;\n\t  bytes3 monthYear;\n    uint rice;\n    uint wheat;\n    uint coarse;\n  }\n  \n  mapping(address => FoodGrains) public distributors;\n\n  mapping(address => uint) public entryCount;\n  mapping(address => BeneficiaryData[]) public beneficiaryData;\n  uint addressCount;\n\n  constructor() public {\n    admin = msg.sender;\n  }\n\n  function getAdmin() public view returns (address x){\n    return admin;\n  }\n\n  function allocate(address distributorId,uint rice,uint wheat,uint coarse) public {\n    require(msg.sender == admin);\n\n    FoodGrains memory grains = distributors[distributorId];\n\n    uint newRice = grains.rice + rice;\n    uint newWheat = grains.wheat + wheat;\n    uint newCoarse = grains.coarse + coarse;    \n\n    distributors[distributorId] = FoodGrains(newRice,newWheat,newCoarse);\n    emit BufferStatusChanged(distributorId,rice,wheat,coarse);\n  }\n\n  function sell(address beneficiaryId,bytes1 date,bytes3 monthYear,uint rice,uint wheat,uint coarse) public {\n    FoodGrains memory grains = distributors[msg.sender];\n\n    uint newRice = grains.rice - rice;\n    uint newWheat = grains.wheat - wheat;\n    uint newCoarse = grains.coarse - coarse;\n\n    distributors[msg.sender] = FoodGrains(newRice,newWheat,newCoarse);\n\n    beneficiaryData[beneficiaryId].push(BeneficiaryData(beneficiaryId,msg.sender,date,monthYear,rice,wheat,coarse));\n\tentryCount[beneficiaryId]++;\n\n\temit BufferStatusChanged(msg.sender,newRice,newWheat,newCoarse);\n    emit Sold(beneficiaryId,rice,wheat,coarse);\n  }\n\n  function getAllTransactions(address beneficiaryId) public view returns (address[] memory){\n\t  address[] memory addresses = new address[](entryCount[beneficiaryId]);\n\t  for(uint i = 0;i < entryCount[beneficiaryId];i++){\n\t\t  BeneficiaryData storage data = beneficiaryData[beneficiaryId][i];\n\t\t  addresses[i] = data.beneficiary;\n\t  }\n\t  return (addresses);\n  } \n\n}",
  "sourcePath": "S:/commodity/contracts/Commodity.sol",
  "compiler": {
    "name": "solc",
    "version": "0.5.0+commit.1d4f565a.Emscripten.clang"
  },
  "schemaVersion": "3.0.0",
  "updatedAt": "2019-01-05T11:32:49.177Z",
  "devdoc": {
    "methods": {}
  },
  "userdoc": {
    "methods": {}
  }
}